:100000000C947B010C949A010C949A010C949A0123
:100010000C949A010C949A010C949A010C949A01F4
:100020000C949A010C949A010C949A010C949A01E4
:100030000C949A010C9453090C949A010C948E041C
:100040000C943B110C9471110C9445050C945005C3
:100050000C945B050C949A010C949A010C949A01EF
:100060000C94A2040C9446070C949A010C94C907B2
:100070000C949A010C949A010C949A010C94200906
:100080000C94FF080C940A090C9415090C9433097C
:100090000C94E2080C949A010C94F4080C949A01C4
:1000A0000C949A010C949A010C949A010C949A0164
:1000B0000C949A010C949A010C949A010C949A0154
:1000C0000C949A010C949A010C949A01D0116A1222
:1000D000D112EB12FC125313C0131C145114F5145B
:1000E00059146D14FC14E01505160916141624167F
:1000F00000002110422063308440A550C660E770A4
:10010000088129914AA16BB18CC1ADD1CEE1EFF14B
:100110003112100273325222B5529442F772D662F3
:10012000399318837BB35AA3BDD39CC3FFF3DEE39B
:100130006224433420040114E664C774A444855443
:100140006AA54BB528850995EEE5CFF5ACC58DD5EB
:100150005336722611163006D776F6669556B44693
:100160005BB77AA719973887DFF7FEE79DD7BCC73B
:10017000C448E5588668A7784008611802282338E3
:10018000CCC9EDD98EE9AFF9488969990AA92BB98B
:10019000F55AD44AB77A966A711A500A333A122A33
:1001A000FDDBDCCBBFFB9EEB799B588B3BBB1AABDB
:1001B000A66C877CE44CC55C222C033C600C411C83
:1001C000AEED8FFDECCDCDDD2AAD0BBD688D499D2B
:1001D000977EB66ED55EF44E133E322E511E700ED3
:1001E0009FFFBEEFDDDFFCCF1BBF3AAF599F788F7B
:1001F0008891A981CAB1EBA10CD12DC14EF16FE15B
:100200008010A100C230E320045025404670676092
:10021000B9839893FBA3DAB33DC31CD37FE35EF3AA
:10022000B1029012F322D2323542145277625672E2
:10023000EAB5CBA5A89589856EF54FE52CD50DC5FA
:10024000E234C324A0148104667447642454054432
:10025000DBA7FAB79987B8975FE77EF71DC73CD74A
:10026000D326F2369106B016576676761546345682
:100270004CD96DC90EF92FE9C899E9898AB9ABA99A
:100280004458654806782768C018E1088238A328D2
:100290007DCB5CDB3FEB1EFBF98BD89BBBAB9ABBEA
:1002A000754A545A376A167AF10AD01AB32A923A22
:1002B0002EFD0FED6CDD4DCDAABD8BADE89DC98D3A
:1002C000267C076C645C454CA23C832CE01CC10C72
:1002D0001FEF3EFF5DCF7CDF9BAFBABFD98FF89F8A
:1002E000176E367E554E745E932EB23ED10EF01EC2
:1002F00000020E060C0411241FBECFEFD1E2DEBFB8
:10030000CDBF12E0A0E0B2E0E0EDF5E300E00BBF0E
:1003100002C007900D92A231B107D9F714E0A2E113
:10032000B2E001C01D92A438B107E1F70E949A160D
:100330000C94E71A0C9400008FB7F894992708954D
:100340008FBF0895282F9FB7F894E82FFF27E15C0F
:10035000FD4F80818F3F81F4E0917804E21771F4C2
:100360000BC02093A70304C0FF27E15CFD4F20834F
:100370002093780420E007C025E005C08091A70302
:100380008F3F91F7EECF892F99278FBF822F992723
:10039000089580917F038A3021F480915E02843039
:1003A00021F081E08093160208958EE00E94A20160
:1003B0001092160208952FB7F89433278093C60041
:1003C000E0ECF0E08081806480832FBF0895FC0121
:1003D0006115710519F481E090E008958091710232
:1003E00090917202892B19F085E090E00895709346
:1003F000970360939603F0937202E0937102109258
:10040000600210925F0281E0809361028091C000DF
:1004100080648093C0008091C10080648093C1009B
:10042000808121E030E03093600220935F020E94DF
:10043000DB0180E090E008958FB7F8949927209130
:1004400027022E7F209327022EE7209351028FBF91
:1004500061E070E081E592E00E94E701992708954C
:100460001F931FB7F89480914304882341F48CE0D4
:100470000E94A201882319F481E080934304812F14
:1004800099278FBF1F910895882319F08CB5806438
:1004900002C08CB58F7B8CBD08950F931F93982F4E
:1004A0001FB7F89480911502823099F580910A0265
:1004B000891779F58091080220E030E08F3F11F430
:1004C00021E030E0232BF1F49FEF90930A028F3F5D
:1004D00019F42FEF30E00DC0282F3327F901E2592E
:1004E000FD4F8081809308028F3F11F490930902A1
:1004F00090832093700281E0809315028BE00E942C
:10050000A20105C08FEF80930A021092150201E04C
:1005100001C000E0812F99278FBF1FB7F894809109
:100520001502882311F40E944402812F99278FBF5E
:1005300090E0013009F491E081E09827892F992714
:100540001F910F910895882319F08CB5806802C01F
:100550008CB58F778CBD08950F931F9380E00E9418
:1005600044020FB7F8941127229A2398219A209ACF
:100570008CB580618CBD80E00E94A3028CB5877F22
:100580008CBD8CB58B7F8CBD81E00E9444028DB503
:1005900081608DBD8CB58C7F8CBD0FBF1F910F917D
:1005A0000895FB0121E030E002C0220F331F8A953D
:1005B000E2F784A5822B84A708958FB7F894209141
:1005C0001203309113034091140350911503E091ED
:1005D0008400F0918500B09B08C02F5F3F4F4F4FC4
:1005E0005F4FE0918400F091850099278FBFC9018A
:1005F000772766279F0144275527622B732B842B6F
:10060000952B0895FC0182819927982F88272181B5
:100610003327822B932B25E0969587952A95E1F732
:10062000817090700895FC0140E050E0828199272C
:10063000982F882721813327822B932B87749C7CCA
:100640008154984811F441E050E0CA010895FC013A
:1006500087819927982F882726813327822B932BF0
:100660000895AC01EFB7F894209184003091850093
:10067000C901841B950B03968617970720F0B901D3
:100680006D5F7F4F02C0640F751F6115710511F416
:1006900061E070E061507040709389006093880061
:1006A00082E086BB80916F00826080936F008E2F06
:1006B00099278FBF089520E030E0FC018181877089
:1006C000823011F421E030E0C9010895CF93DF9327
:1006D000EC010E9402038823D1F0CE010E94130393
:1006E0008823A9F0CE010E9427032FB7F89433275F
:1006F00040910202509103022FBF20E0841795071A
:1007000009F021E081E02827822F992702C080E0AC
:1007100090E0DF91CF910895FB0121E030E002C02D
:10072000220F331F8A95E2F784A582239927089523
:10073000EF92FF920F931F937C018FB7F894992744
:1007400000918203109183030F5E1E4F1093830369
:1007500000938203015111408FBF86E00E94A201E5
:10076000C801B7010E94541A8A5D9E4F1F910F91D4
:10077000FF90EF9008957FB7F8946091B2002091B8
:100780003A0230913B0240913C0250913D02B99BAC
:1007900011C08091B3009091B200280F311D411D0E
:1007A000511D2F5F3F4F4F4F5F4F290F311D411D8F
:1007B000511D04C0260F311D411D511D872F992742
:1007C0008FBFCA01B901089588E00E94A20108956F
:1007D000DF92EF92FF920F931F938FB7F894282F19
:1007E0003327D22E9091B3008091B20047B398176F
:1007F00011F041FF02C02FBF71C0809163028823B6
:10080000E1F10E94BB03E0903202F09033020091CC
:100810003402109135022091AC033091AD03409128
:10082000AE035091AF036E197F09800B910B6217D5
:1008300073078407950720F01092630271E01EC0D1
:100840002E0D3F1D401F511F80913A0290913B0297
:10085000A0913C02B0913D02281B390B4A0B5B0B67
:10086000273E31054105510540F4822F223010F01A
:1008700070E005C070E082E002C070E086EE682F94
:1008800061508091B60083FDFCCF8091B200681763
:1008900009F46F5F20913A0230913B0240913C0293
:1008A00050913D02DA01C9010196A11DB11D860FCB
:1008B000911DA11DB11D82179307A407B50710F460
:1008C000622F60958091B60083FDFCCF6093B300EA
:1008D000DFBE772319F087E00E94A2011F910F91DC
:1008E000FF90EF90DF900895AFB7F894BB27E1E059
:1008F000E093630260933202709333028093340278
:10090000909335022093AC033093AD034093AE0334
:100910005093AF03AFBF0E94E80308951F920F9258
:100920000FB60F9211248F938091B0008093B00086
:100930008091B60081FDFCCF8F910F900FBE0F907C
:100940001F9018951F920F920FB60F9211240F93BC
:100950001F932F933F934F935F936F937F938F9347
:100960009F93AF93BF93CF93DF93EF93FF932EB5F6
:10097000E0917903F0917A03309739F080910E037A
:1009800090910F03E80FF91F208380910E0390913F
:100990000F03019690930F0380930E0380E00E9453
:1009A000A302C0910E03D0910F0320912A0230912F
:1009B0002B02C217D30708F042C000913E041091E9
:1009C0003F044091790350917A03CE010A9628178B
:1009D000390708F4C901DA01AC0FBD1FF801EC0FAB
:1009E000FD1F9C012150304015C00115110531F04B
:1009F00080818EBD0DB407FEFDCF04C01EBC0DB4BA
:100A000007FEFDCF8EB54115510509F08C93219657
:100A100011963196C217D30740F381E00E94A302DA
:100A20000115110531F00C0F1D1FF80180818EBDDD
:100A300001C01EBCD0930F03C0930E0311C01092CF
:100A40007A031092790310923F0410923E041092A0
:100A50002B0210922A0210920F0310920E038EB5F1
:100A6000FF91EF91DF91CF91BF91AF919F918F91C6
:100A70007F916F915F914F913F912F911F910F91B6
:100A80000F900FBE0F901F90189578941F920F92A1
:100A90000FB60F9211240F900FBE0F901F90189554
:100AA00078941F920F920FB60F9211240F900FBEE1
:100AB0000F901F90189578941F920F920FB60F9277
:100AC00011242F933F938F939F93AF93BF932FB78F
:100AD000F89433278091120390911303A09114038B
:100AE000B09115030196A11DB11D8093120390933F
:100AF0001303A0931403B09315032FBFBF91AF91BD
:100B00009F918F913F912F910F900FBE0F901F904B
:100B10001895E0EFF0E06927660FF11DE60FF11D73
:100B2000C895982F802D3196C89590250895982FB7
:100B300080912202882389F5992379F531E0309359
:100B4000220280910B028093230220911702822FB0
:100B500081708093380280911002909111029093DD
:100B60002502809324028091180280932602322766
:100B70003170267EE32FFF27EE0FFF1FE45FFD4F4E
:100B8000808191819093110280931002232B2093F6
:100B9000170281E10E94A20108958091170280FF4F
:100BA00002C08B7F01C08D7F8093170208950F9341
:100BB0001F93082F162F80915E028130D9F081306B
:100BC00038F0823009F44AC0833009F028C159C096
:100BD000002309F458C110928F0310928E031092D3
:100BE00085031092A20310926202109217031092D2
:100BF000160339C1002309F046C180911603909174
:100C000017030E948905909317038093160382E0CF
:100C100080935E021093A203143409F000C125C131
:100C20008695869503C0809117028695817009F09C
:100C3000F6C080911702992311F0846001C0826090
:100C40008093170280911702877E88608093170235
:100C5000109218028FEF80930B0215C1002309F048
:100C6000DEC06093620280911603909117030E9488
:100C70008905909317038093160383E080935E02A7
:100C800002C1809185038F3F09F4C9C0002309F494
:100C900061C0823008F4C3C0E0918E03EE2309F4F2
:100CA000EBC04E2F4150E42FFF27E257FC4F8281CB
:100CB0009927382F2227442311F4E2E002C0E42FC1
:100CC000E150FF27E257FC4F82819927282B392BCF
:100CD00080911603909117032817390709F09FC0D8
:100CE00080E00E9497053091620280910603209176
:100CF0000703982F9F5F963008F090E0921771F0ED
:100D0000E82FFF27EA5FFC4F32838F5F8093060353
:100D1000863010F0109206030E94300210928F036A
:100D200010928E0394E090935E02109285031092CD
:100D3000A203109262021092170310921603809180
:100D400027028D7F8093270280911602882309F461
:100D50009AC084C0823008F44EC0E0918F03FF2710
:100D6000E257FC4F8281482F5527342F20911702DC
:100D7000822F869586958695837099278130910577
:100D800019F00297F9F40EC0277E20612093170214
:100D9000442311F485E001C080E080931802309371
:100DA0000B0210C0809118028F3260F4E0911002A3
:100DB000F0911102E80FF11D4083809118028F5FBE
:100DC0008093180280918F03E82FFF27E257FC4F92
:100DD00062818F5F80938F03833010F010928F03B6
:100DE000772780911603909117030E9489059093AD
:100DF00017038093160380918E03E82FFF27E25795
:100E0000FC4F12838F5F80938E03833010F010921B
:100E10008E03809185038F5F8093850334C0109289
:100E20008F0310928E0314E010935E0210928503DC
:100E30001092A203109262021092170310921603EE
:100E4000809127028D7F8093270281E00E94970581
:100E500080911602882329F010935E020E94C90136
:100E600012C0002381F081E009CF80911702982FF2
:100E7000917080FDD5CED7CE809192039927382FDF
:100E8000222742E01CCF1F910F9108951F920F92CD
:100E90000FB60F9211242F933F934F935F936F934D
:100EA0007F938F939F93AF93BF93EF93FF93809123
:100EB000C00087FF42C06091C600E0911803F09126
:100EC0001903309719F18091410490914204E80F81
:100ED000F91F60830196909342048093410420910E
:100EE0007D0430917E048217930738F11092190324
:100EF0001092180380917E038330F9F08091C10035
:100F00008F778093C10010927E0317C06E3719F45B
:100F100060E081E010C0809127026D3721F482608B
:100F2000809327020AC081FF05C08D7F809327022E
:100F300080E2682780E00E94D705FF91EF91BF9182
:100F4000AF919F918F917F916F915F914F913F9161
:100F50002F910F900FBE0F901F901895982F8D57BF
:100F6000823068F48091270281608093270280E2BA
:100F70008927809384038DE78093510202C0909368
:100F8000510261E070E081E592E00E94E70199275B
:100F9000089578941F920F920FB60F921124FF922A
:100FA0000F931F932F933F934F935F936F937F9371
:100FB0008F939F93AF93BF93CF93DF93EF93FF9361
:100FC00020915F0230916002809196039091970387
:100FD0002817390780F4E0917102F0917202E20F54
:100FE000F31F80812F5F3F4F3093600220935F0299
:100FF0000E94DB01D1C01092720210927102109215
:1010000061028091C1008F7B8093C100FFB6F8948C
:101010008091270280FF0EC08E7F809327028091EF
:1010200084038093510261E070E081E592E00E94C8
:10103000E701AFC080917F03843009F48CC0853014
:1010400040F4823021F18330B8F5813009F09CC042
:101050000DC0863009F48DC0863008F483C0873017
:1010600009F48EC0883009F08FC091C080916F0262
:101070000E94AE07082F83E080937F0360916F0288
:1010800080917B0490917C040E94890510C080911E
:10109000AB030E94AE07082F83E080937F0360912B
:1010A000AB0380917B0490917C040E94890590930E
:1010B0007C0480937B0466C0E0911A03FF27EE0F47
:1010C000FF1FEC55FD4F80810E94AE07082F109145
:1010D0001A03C12FDD27FE01EE0FFF1FEC55FD4F58
:1010E000608180917B0490917C040E94890590939B
:1010F0007C0480937B0420916D022F5F20936D020E
:10110000113039F580911E02E0911902F0911A0216
:10111000E80FF11DE0818F5F80931E0290911D0208
:10112000981730F482E08093A50240E050E002C0BE
:101130004E2F5527DE01AA0FBB1FFD01ED55FD4FB8
:101140008081823031F02F3F21F0AC55BD4F4C9360
:1011500019C084E012C080917B040E94AE07082F62
:1011600085E00BC080917C040E94AE07082F86E0CA
:1011700004C00E941C02082F87E080937F0302C0F6
:1011800088E003C0002329F089E080937F030E9458
:1011900030028F2D99278FBFFF91EF91DF91CF9173
:1011A000BF91AF919F918F917F916F915F914F917F
:1011B0003F912F911F910F91FF900F900FBE0F90B5
:1011C0001F9018951F920F920FB60F9211248F93B4
:1011D0008091C80087FF02C08091CE008F910F9050
:1011E0000FBE0F901F90189578941F920F920FB614
:1011F0000F9211240F900FBE0F901F9018957894A6
:101200001F920F920FB60F9211240F900FBE0F90E6
:101210001F90189578941F920F920FB60F92112479
:101220000F900FBE0F901F90189578941F920F92F9
:101230000FB60F9211240F900FBE0F901F901895AC
:1012400078941F920F920FB60F9211248F939F9351
:1012500080919600909197009F918F910F900FBE73
:101260000F901F90189578941F920F920FB60F92BF
:1012700011242F933F938F939F932FB7F894332785
:101280008091690290916A02019690936A0280931C
:1012900069022FBF9F918F913F912F910F900FBEA9
:1012A0000F901F9018951F920F920FB60F92112456
:1012B0002F933F934F935F936F937F938F939F935E
:1012C000AF93BF93EF93FF938091B0008093B000F2
:1012D0008091B60081FDFCCF8091B30099270196E3
:1012E000AA27BB2720913A0230913B0240913C0251
:1012F00050913D02280F391F4A1F5B1F20933A026D
:1013000030933B0240933C0250933D0278940E94FC
:10131000E803FF91EF91BF91AF919F918F917F91E2
:101320006F915F914F913F912F910F900FBE0F9052
:101330001F90189521E02093A20220937B03209117
:10134000840030918500BC01C9010E9431030895D9
:101350000F931F93CF93DF93182F0FB7F8948091BB
:101360001502882311F40E94AC02802F99278FBFA9
:101370008FB7F894C82FDD272C2F80911502882372
:1013800061F481E080931502109370028BE00E945B
:10139000A201CFBF80E090E021C0E12FFF27E259FA
:1013A000FD4F80818F3F89F4E0910902E11789F4B4
:1013B0000CC01093080204C0FF27E259FD4F1083B0
:1013C0001093090280E090E002C085E090E02FBF1A
:1013D00005C0809108028F3F79F7EBCFDF91CF9165
:1013E0001F910F9108958FB7F894282F3327922FCC
:1013F00080910A02882331F480911502823011F421
:101400002FBF13C09FBF8FB7F894282F3327809129
:101410001502882369F482E08093150210920A0273
:101420002FBF0E94AC02209A289A81E090E0089594
:101430002FBF80E00E94A80980E090E008951F93EC
:10144000982F1FB7F89480911402823099F58091FB
:101450000702891779F58091050220E030E08F3F7F
:1014600011F421E030E0232BF1F49FEF9093070279
:101470008F3F19F42FEF30E00DC0282F3327F901EB
:10148000E85AFD4F8081809305028F3F11F49093BD
:10149000060290832093550281E08093140282E03B
:1014A0000E94A20105C08FEF8093070210921402E0
:1014B00021E001C020E0812F99278FBF90E02130EB
:1014C00009F491E081E09827892F99271F910895C9
:1014D00080915C02823031F481E080935C0284E090
:1014E0000E94A20108958093B003882311F484E040
:1014F00001C081E080935C0284E00E94A201089513
:101500003F924F925F926F927F928F929F92AF9293
:10151000BF92CF92DF92EF92FF920F931F93CF93E0
:10152000DF932C0180912902882309F07AC18091F0
:101530004004853009F075C10E94F309882309F43D
:1015400070C180919303882309F06BC1B20182E0DE
:101550000E948C03882311F490E003C0F20196A549
:101560009F708091D602981781F09093D6022898A8
:1015700085EC8EBD0DB407FEFDCF8EB590689EBD87
:101580000DB407FEFDCF8EB5289AC2010E94130349
:10159000882301F1289886E88EBD0DB407FEFDCFA3
:1015A0008EB51EBC0DB407FEFDCF8EB5289A9927C7
:1015B0008F7190702091680240915902240F312D53
:1015C000311D43E0359527954A95E1F728173907EE
:1015D0000CF427C1289882EC8EBD0DB407FEFDCF18
:1015E0008EB589E08EBD0DB407FEFDCF8EB5289A6D
:1015F0000E94DD027B018C01B20184E00E948C0319
:10160000882319F4E0E0F0E006C0D2018C91855007
:10161000F201E80FF11D289881E88EBD0DB407FE98
:10162000FDCF8EB51EBC0DB407FEFDCF8EB5289A3A
:101630008F71893079F0289882EC8EBD0DB407FE49
:10164000FDCF8EB586E08EBD0DB407FEFDCF8EB505
:10165000289AE7C08FB7F89499272F9A2091840091
:10166000309185008FBF2F98289880E68EBDD201DB
:101670009C910DB407FEFDCF8EB59EBD8EEF382E2A
:10168000390EB6E0B31510F0632D01C067E0A2017A
:101690004F5F5F4FDA01962F7D910DB407FEFDCFAE
:1016A0008EB57EBD9150C1F76150EA01C60FD11DC4
:1016B0006F5F21962E193F092E553F4F390188241F
:1016C00077FC8094982C6E0C7F1C801E911E3097A6
:1016D00019F4932D961B42C02081E1808281A38062
:1016E0009927AA27BB27BA2FA92F982F88273327F6
:1016F00044275527522F442733272227FF2400272A
:1017000011278701FF24EE242E293F29402B512B3E
:10171000BB24CC24DD242A293B294C295D29822B9A
:10172000932BA42BB52B86199709A809B909838394
:10173000292F3A2F4B2F552722839D0144275527C8
:1017400021838B2F9927AA27BB278083C2CF28818B
:101750000DB407FEFDCF21968EB52EBD9150B8F782
:101760000DB407FEFDCF8EB5289A289882EC8EBD69
:101770000DB407FEFDCF8EB586E08EBD0DB407FE1D
:10178000FDCF8EB5289A3097D1F12081E1808281FA
:10179000A3809927AA27BB27BA2FA92F982F88277C
:1017A000332744275527522F442733272227FF2446
:1017B000002711278701FF24EE242E293F29402BE3
:1017C000512BBB24CC24DD242A293B294C295D291B
:1017D000822B932BA42BB52B860D971DA81DB91D0D
:1017E0008383292F3A2F4B2F552722839D0144278E
:1017F000552721838B2F9927AA27BB278083B201E6
:1018000081E00E94D102F20160A671A682A693A691
:1018100086E08093400484E08093290280E090E099
:1018200002C085E090E0DF91CF911F910F91FF9072
:10183000EF90DF90CF90BF90AF909F908F907F9070
:101840006F905F904F903F900895AF92BF92CF926C
:10185000DF92EF92FF920F931F93CF93DF938091CC
:101860009303882309F4F5C00E94F309882309F43F
:10187000F0C08FB7F8949927C0916B02D0916C0299
:101880008FBF1092930328988FE88EBD0DB407FE8A
:10189000FDCF8EB51EBC0DB407FEFDCF8EB5289AC8
:1018A000982F80912902833011F0873031F485E040
:1018B0008093400488E080932902A92EBB24A2FED5
:1018C00063C080912902863019F41092290203C066
:1018D000882309F059C0943009F045C0289886E85B
:1018E0008EBD0DB407FEFDCF8EB51EBC0DB407FE38
:1018F000FDCFFEB4289A2FE1F22280915902982F51
:10190000969596953F2D391B830F80935902009130
:10191000360210913702F80184A58B7F84A7B801A5
:1019200083E00E94D102F801F6A60E94DD027B014D
:101930008C01C0903602D0903702B60181E00E943F
:10194000D102CE19DF092797CE01AA2797FDA095CE
:10195000BA2F8E0D9F1DA01FB11FF60180A791A762
:10196000A2A7B3A70EC0E0913602F091370284A57A
:10197000877F84A7E0913602F091370284A58D7F9E
:1019800084A785E080932902A3FE63C08091290289
:10199000843009F041C085E0809340041092290210
:1019A00080913902833019F41092390252C00091AB
:1019B000790410917A04C8010E940203882321F15E
:1019C000C8010E9413038823F9F0C8010E9427036D
:1019D0008F5F9F4FC9F090E080917B03882309F4CB
:1019E00091E0992389F012E01093A20281E08093A4
:1019F0007B03809184009091850069E973E00E94E7
:101A000031031093390225C01092390210925D0201
:101A100080E00E94730A1DC08530D9F420916802CD
:101A2000289886E88EBD0DB407FEFDCF8EB51EBC8E
:101A30000DB407FEFDCF8EB5289A8F71922F969523
:101A40009695891B280F2093680289E080932902CC
:101A500008C090912902992309F4DFC2993009F056
:101A60000CC2289880E28EBD0DB407FEFDCF8EB566
:101A70001EBC0DB407FEFDCF8EB5482F5527433051
:101A800008F490C3842F99278A970CF08BC31EBC4F
:101A9000E0913602F09137024083042F0250073064
:101AA00010F4102F01C017E09F012F5F3F4F912FBF
:101AB000F901EE24FF240DB407FEFDCF8EB51EBC48
:101AC00080838191A7014827042E4295407F4025BD
:101AD000052E542F42954F700426469554274527CE
:101AE000440F440F440F40257A01915021F71150C3
:101AF000E901C10FD11D1F5F21968091360290919F
:101B000037020E945B03882349F020E030E0809197
:101B10003902823081F421E030E00DC08FB7F894B3
:101B2000282F332790E080918803833008F491E0D8
:101B30002FBF292F3327232B09F45FC0902F911B30
:101B40001AC00DB407FEFDCF8EB51EBC88838991E7
:101B5000F701E8270E2EE295E07FE0250F2EFE2FFD
:101B6000E295EF700E26E695FE27EF27EE0FEE0FBB
:101B7000EE0FE0257F01915020F70DB407FEFDCF59
:101B80008EB51EBC97012827022E2295207F202586
:101B9000032E322F22952F700226269532272327D7
:101BA000220F220F220F20250DB407FEFDCF8EB588
:101BB0001EBC2827022E2295207F2025032E322F9F
:101BC00022952F700226269532272327220F220FD7
:101BD000220F20250DB407FEFDCF8EB5E091360211
:101BE000F091370285A7289A15E0109340041092CF
:101BF0002902232B09F00DC205C00DB407FEFDCF4D
:101C00008EB5D0C2C0913602D0913702CE010E946B
:101C10005B0390913902882321F1923009F028C1A9
:101C20009B81E0917904F0917A048381981709F0FF
:101C30001FC189818770823009F01AC180916F00BD
:101C40008D7F80936F0010927B03BF0180E00E9424
:101C5000D1021092390210925D0280E00E94730A54
:101C600007C19923C1F4CE010E946603882399F02D
:101C70001093D70282E08093D8021092D9028B8110
:101C80008093DA0287ED92E00E94800A882319F49B
:101C900083E0809339020091840010918500CE0189
:101CA0000E946603882311F0045E1C4F10931103F9
:101CB0000093100380918400909185009801281B67
:101CC000390B12161306A4F480915D02882369F47F
:101CD00090E080917B03882309F491E0992341F0FF
:101CE000C9010E949A0980E801C0806880935D0262
:101CF0005E010894A11CB11C898528859927582F5D
:101D000044273327422B532B80913E02282F332721
:101D1000F901EE0FFF1FE856FC4F80819181009181
:101D20007C038417950749F4F901ED58FB4F808136
:101D3000801709F468C0802F1BC0EE24FF2480E0C8
:101D400090E0A8E9B3E0E3E7F4E0BF01182F9C01BD
:101D50008D919C9111978417950789F420933E02E9
:101D600090917C03FB018081891709F44CC0892F75
:101D70008F5F80937C038083E0E8EE2E2AC0808111
:101D8000902F981BE91610F4E92EF22E1F5FC9015F
:101D900001966F5F7F4F1296319685309105B1F6AF
:101DA0001530B9F4F0923E02AF2DBB27FD01EE0FC6
:101DB000FF1FE856FC4F5183408380917C038F5F67
:101DC00080937C03FD01ED58FB4F8083A158BB4FEE
:101DD0001C9290917C03892F8F778F3781F4EEE7E7
:101DE000EE1568F4E3E7F4E0292F207880818F670F
:101DF00089132083319634E0E837F307B9F78091EF
:101E00003E02282F3327F5019281A22FBB27FD0127
:101E1000E158FB4F808180FF07C0FD01E757FC4F71
:101E20008081981729F102C081608083A757BC4F39
:101E30009C93FFB6F894809188038330B0F4E091CE
:101E4000AA03E80FE33008F0E350FF27EE0FFF1F6F
:101E5000E45DFD4F00811181D183C0838F5F80934A
:101E6000880385E00E94A201E8018F2D99278FBF8A
:101E7000D0933702C0933602C3C0892F815083307C
:101E800008F09CC081508230E0F430914004313041
:101E9000C1F420E080917B03882309F421E0222310
:101EA00081F02F9883E08093A20230937B0380918E
:101EB0008400909185006BE273E00E94310382E020
:101EC00068C0933009F042C080914004833009F02B
:101ED00097C00E94F3098823C9F128988FE88EBD26
:101EE0000DB407FEFDCF8EB51EBC0DB407FEFDCFB1
:101EF0008EB5289A8091810080648093810080E271
:101F000086BB80916F00806280936F009091540235
:101F1000289888EC8EBD0DB407FEFDCF8EB5906677
:101F20009EBD0DB407FEFDCF8EB5289A289882EC91
:101F30008EBD0DB407FEFDCF8EB586E08EBD0DB40F
:101F400007FEFDCF8EB5289A84E023C08091290238
:101F50008150823000F5809140048530E1F40E9488
:101F6000F3098823C1F0289882EC8EBD0DB407FEDA
:101F7000FDCF8EB583E08EBD0DB407FEFDCF8EB5CF
:101F8000289A80916F008F7D80936F001092930349
:101F900083E08093400490912902913041F4809134
:101FA00040048330B1F52F9A9093400425C09230BD
:101FB00039F580914004833061F51EC0973001F5FA
:101FC0000E94F3098823E1F090915402289888EC4C
:101FD0008EBD0DB407FEFDCF8EB590669EBD0DB4CF
:101FE00007FEFDCF8EB5289A80914004853021F4FC
:101FF00084E08093400404C088E08093290204C0F8
:1020000080912902883029F41092290283E00E94ED
:10201000A20180912902882309F58091400485302E
:10202000D1F4809193038823B1F4809139028823FD
:1020300091F480915D02882371F490E080917B039C
:10204000882309F491E0992331F00E94680A809175
:102050002902882319F489E00E94A20180917B0360
:10206000823009F092C010927B03F090A202F2E05D
:10207000FF1609F466C023E0F21609F46AC031E0E5
:10208000F31609F082C02091100330911103809162
:1020900084009091850040915D02403829F41092AF
:1020A0005D020E94680A71C08901081B190B47FF75
:1020B00003C010161106ECF0C0915A02D0915B02D9
:1020C000809139028823A9F4CE010E94800A9927C1
:1020D000882351F48CA58E7F8CA7F0923902D0937F
:1020E0007A04C093790429C09927F82E882329F10E
:1020F00002C055E0F52E20915D02822F99278F773F
:10210000019759F42078226020935D0280E198E0E5
:102110000E9498030E949A0938C027FF0AC010162F
:1021200011063CF480E880935D02C8010E949A0980
:1021300002C010925D028F2D09C083E080935D0282
:1021400024C01092390210925D0280E00E94730A4E
:102150001CC080914004823019F4F092400413C0F6
:1021600080912902863079F410922902289881E81A
:102170008EBD0DB407FEFDCF8EB51EBC0DB407FE9F
:10218000FDCF8EB5289A0E9427118FB7F894282F7B
:10219000332780915302813061F081E080935302B4
:1021A0002FBF5DCB289A85E08093400410922902CE
:1021B00030CF109253022FBFDF91CF911F910F911B
:1021C000FF90EF90DF90CF90BF90AF9008958FB7C2
:1021D000F894282F33278091530281508093530223
:1021E000803811F02FBF089581E0809353022FBFF4
:1021F0000E94250C08951F93FC018FE38287809134
:1022000028028F5F8093280283832FB7F8943327A7
:10221000809153028F5F809353022FBF80915C02A5
:10222000882311F015E00DC0F0938103E093800343
:1022300081E080935C0210927D0384E00E94A20101
:1022400010E00E94E710812F99271F9108958FB702
:10225000F894282F332780915302882329F080682F
:10226000809353022FBF089581E0809353022FBFC4
:102270000E94250C089578941F920F920FB60F922A
:1022800011242F933F934F935F936F937F938F937B
:102290009F93AF93BF93EF93FF93E6E8F0E08081C5
:1022A0009181208131818FB7F894992730936C0206
:1022B00020936B0221E0209393038FBF0E9427118C
:1022C000FF91EF91BF91AF919F918F917F916F910E
:1022D0005F914F913F912F910F900FBE0F901F90E4
:1022E000189578941F920F920FB60F9211242F9386
:1022F0003F934F935F936F937F938F939F93AF938E
:10230000BF93EF93FF9380916F008D7F80936F0059
:1023100078949FB7F89480917B03813019F482E020
:1023200080937B03892F99278FBF0E942711FF91EC
:10233000EF91BF91AF919F918F917F916F915F913D
:102340004F913F912F910F900FBE0F901F901895B6
:102350002F923F924F925F926F927F928F929F92B5
:10236000AF92BF92CF92DF92EF92FF920F931F93A3
:10237000CF93DF93CDB7DEB729970FB6F894DEBFC2
:102380000FBECDBFE82FFF27E231F10508F09CC456
:10239000EA59FF4FEE0FFF1F0590F491E02D0994CD
:1023A00080911202882309F08FC443E7E42E42E0B3
:1023B000F42EC7010E9427038C01C7010E9413035A
:1023C000882369F4809174029927807390708164E6
:1023D000986880937402892F99278093750289E207
:1023E000809373022FB7F894332780910202909163
:1023F00003022FBF80937B02892F992780937C0251
:102400002FB7F8943327809104022FBF9927809328
:1024100077021092780280EF80937E020093790217
:10242000812F992780937A028FB7F894282F33272A
:1024300080911402882371F482E080931402109238
:1024400007022FBFC7010E94FB109927182F88236E
:1024500099F00FC02FBFF0925702E09256028FB74B
:10246000F894082F1127202F80911402882399F4C3
:1024700006C080E00E941F0A812F992724C081E0B6
:10248000809314021092550282E00E94A2010FBFB5
:1024900080E090E018C0809158028F3F89F4E0916D
:1024A0000602EE2369F009C41092050204C0FF275A
:1024B000E85AFD4F10821092060280E090E002C0C0
:1024C00085E090E02FBF892B09F0FEC381E0809367
:1024D0001202FAC380911302882309F0F5C3809198
:1024E00049049927982F882720914A043327822B63
:1024F000932B80934A04892F9927809349048FE076
:1025000080934F048CE180934D0480911B02909145
:102510001C02892B09F0D8C32FB7F894332785E024
:1025200080931E0210921F0284E494E090931A029A
:102530008093190282E090E090931C0280931B022A
:10254000109221021092200288E280931D022FBF78
:102550008FB7F894282F332780917F038A3011F4A6
:102560002FBF1AC02FBF9FB7F8948091A502882370
:1025700011F020E006C081E08093A5021092A6022F
:1025800021E0892F99278FBF222331F00E9430024A
:1025900081E08093130298C310921C0210921B02D8
:1025A00093C32FB7F8943327809155028093070285
:1025B00082E0809314022FBF80910702882309F0E4
:1025C00083C380915602909157020E94FB1088238A
:1025D00009F47AC35AC080915C0210925C02853083
:1025E00011F4119871C3863009F46EC3873009F471
:1025F0006BC380935C0268C32FB7F8943327809134
:1026000053028F5F809353022FBF40915C02413091
:1026100081F580917D038F5F80937D03863048F53F
:10262000209180033091810380915D028823C1F461
:1026300090E080917B03882309F491E0992381F055
:1026400030935B0220935A0240935D028BED91E13F
:102650000E9498030E949A091092B00383E004C07C
:1026600085E08093B00382E080935C020E94E710D3
:102670002BC310925C020E94E710E0918003F0915E
:10268000810382858F3309F01FC380E00E941F0AF7
:102690008FB7F894992722B131E0232722B98FBF51
:1026A0001092120211C38FB7F894282F332780910C
:1026B0008803882309F407C3E091AA03FF27EE0FDC
:1026C000FF1FE45DFD4FE080F1802FBFF7018285A1
:1026D0008F3321F513850081C7010E942703AC01C8
:1026E0008FB7F894992720910202309103028FBF8F
:1026F0004217530719F04F5F5F4F31F51F3021F537
:10270000093211F5A4E4B4E0F7018FE201900D92D3
:102710008150E1F781E00E94A20116C0C7010E942A
:102720002703AC018FB7F8949927209102023091CA
:1027300003028FBF4217530719F04F5F5F4F21F419
:102740008FB7F89499278FBF9FB7F8948091AA0309
:10275000E82FFF27EE0FFF1FE45DFD4FF182E082BF
:102760008F5F8093AA03833010F01092AA038091A8
:102770008803815080938803892F99278FBF93CF37
:102780008FB78983F894209064023090650240905E
:10279000660250906702662477248824EEE4AE2E09
:1027A00073E8B72ECC24DD24EE24FF2400E010E0F3
:1027B000222D332D442D552D662D772D882D90E01B
:1027C0000E94D3182A833B834C835D836E837F836F
:1027D00088879987822E932EA42EB52E2401350149
:1027E00000E20E94D119A22EB32EC42ED52EA30131
:1027F000920156954795379527952A0D3B1D4C1DFF
:102800005D1D57FF05C05F772F5F3F4F4F4F5F4FF5
:1028100020936402309365024093660250936702EE
:10282000E9818E2F99278FBF8FB7F894992730931E
:102830008303209382033CC080915202882361F578
:102840002091A3033091A4034091A5035091A603C6
:10285000EFB7F894FF2760913202709133028091B4
:10286000340290913502E090AC03F090AD030091FA
:10287000AE031091AF036E0D7F1D801F911FEFBF40
:102880002093A3033093A4034093A5035093A6037E
:10289000109252020E9474040E94BB030E94E4033F
:1028A00013C20E94BB038FB7F8949927109263025A
:1028B00002C28FB7F894992710927A031092790385
:1028C00010923F0410923E0410922B0210922A02A2
:1028D00010920F0310920E03EBCF2FB7F89433270B
:1028E0008091700280930A0282E0809315022FBFCC
:1028F00080910A02882309F0E7C1209A289A8091E2
:102900004004882309F075C08EEF91E0019701968D
:102910000197E1F716982F9886E090E001970196CD
:102920000197E1F7169A289883EC8EBD0DB407FE47
:10293000FDCF8EB51EBC0DB407FEFDCF8EB5289A17
:10294000289882EC8EBD0DB407FEFDCF8EB588E0D1
:102950008EBD0DB407FEFDCF8EB5289A8EEF91E0A7
:10296000019701960197E1F728988EEC8EBD0DB482
:1029700007FEFDCF8EB58DE48EBD0DB407FEFDCFF5
:102980008EB5289A289889EC8EBD0DB407FEFDCF30
:102990008EB587EC8EBD0DB407FEFDCF8EB5289A9F
:1029A000289885EC8EBD0DB407FEFDCF8EB580E86E
:1029B0008EBD0DB407FEFDCF8EB5289A1092D602BB
:1029C0008BE080935402289888EC8EBD0DB407FEEE
:1029D000FDCF8EB58BE68EBD0DB407FEFDCF8EB557
:1029E000289A2F9A81E08093400480E00E944D0253
:1029F0006BC10E94271168C18FB7F89410924304ED
:102A000020917F0340E0283009F441E030E0293094
:102A100009F431E0442311F4332351F010927F0381
:102A2000E0911A03FF27EE0FFF1FED55FD4F1082B7
:102A300099278FBF442311F4332331F19FB7F894C2
:102A40008091AB038F5F8093AB0380916F028334DF
:102A500079F42091070380910603821779F0822F81
:102A60008F5F80930703863048F01092070306C0FB
:102A7000A0E0442309F4A1E071E002C0A0E070E00E
:102A8000892F99278FBF06C0222311F010E06CC058
:102A9000A0E070E08FB7F8949927209116028FBFBD
:102AA000222341F08FB7F89499272AE020937F03DF
:102AB0008FBF42C08FB7F89499276091A3024091CD
:102AC000A5028FBF8FB7F894282F332750E090913D
:102AD000060380910703981709F451E02FBF55238F
:102AE00041F5662331F55FB7F89482E08093A30245
:102AF0008FB7F894282F332740E0909106038091F8
:102B00000703981709F441E02FBF442311F080E038
:102B100006C0E0910703FF27EA5FFC4F82818093A4
:102B2000A40283E480936F0210921A03852F9927E1
:102B30000EC04150423010F010E00BC08FB7F89437
:102B4000992725E420936F0221E020931A038FBF79
:102B500011E0772349F08FB7F8949927A0931F02CB
:102B60008FBF80E10E94A2018FB7F894E82EFF2466
:102B700080917F038A3021F40E94C901EFBEA4C076
:102B8000EFBE112309F4A0C02FB7F8943327109299
:102B90007C0410927B0410926D0281E080937F038D
:102BA0002FBF0E941C02882309F48EC08FB7F894AF
:102BB000992729E020937F038FBF0E94300284C0B1
:102BC0008091C1008F7B8093C1008091C1008F777D
:102BD0008093C10010927E03109261028091C10027
:102BE00088608093C1008091C10080618093C100A2
:102BF0008091C10080688093C1008FB7F8949927B5
:102C000010927F0310925E0253CE8FE00E94A201C9
:102C10005BC08091C100877F8093C1008091C1001B
:102C20008F7E8093C10050C010921C0210921B0234
:102C30008FB7F89499278FBF80912102882309F0DC
:102C400043C01092130240C08FB7F8949927209187
:102C50002302E0902402F090250230912602109188
:102C600038028FBF222389F4932F9C50F70183856C
:102C7000803F59F49C3149F4A3E7B2E08FE2019020
:102C80000D928150E1F70E94A2018FB7F894E12FD5
:102C9000FF27EE0FFF1FE45FFD4FF182E0822091DE
:102CA0001702112311F02B7F01C02D7F20931702F3
:102CB0001092220299278FBF07C0809105028F3F93
:102CC00009F0F5CBF1CB2FBF29960FB6F894DEBFF4
:102CD0000FBECDBFDF91CF911F910F91FF90EF906D
:102CE000DF90CF90BF90AF909F908F907F906F902C
:102CF0005F904F903F902F9008958091A7038F3F52
:102D0000B1F0282F3327F901E15CFD4F80818093DA
:102D1000A7038F3F11F4809378048FEF80832F3FB8
:102D200031F0822F0E94A81181E090E0089580E0A8
:102D300090E00895FF920F931F93FFB6F89414BE8E
:102D400088E10FB6F89480936000109260000FBE87
:102D500042E150E06FEF70E08FE392E00E94E01AF2
:102D60008FEF8093A7038093780456985E985498C9
:102D70005C9880916F008F7D80936F00209A289AD5
:102D8000279A2F980E9A169A87EA92E09093370224
:102D900080933602109268028AE58093590281E09E
:102DA0008093810080E28093B60083E08093B1003D
:102DB00080918400909185004AE7209184003091B1
:102DC00085002817390708F44150442311F0C90140
:102DD000F4CF9091B2008091B2008917E1F3209175
:102DE0008400309185009091B2008091B2008917E3
:102DF000E1F38091840090918500821B930B4096B3
:102E0000F5E096958795FA95E1F79093A90380935D
:102E1000A8031092B1008091B1008093810080914D
:102E200081008093B6001092B2001092850010923B
:102E300084008FEF87BB87B386BB8091B600857116
:102E4000E1F70A9A099A089A129A119A109A18B8F0
:102E50008FEF87B90C9814981092950010929400F7
:102E60008091710081608093710080919100887FD2
:102E7000826080939100109285001092840080916E
:102E80006F00816080936F0080918100887F8260F5
:102E9000809381000E947D168823E1F712E006E00E
:102EA0006091A8037091A90388279927ECE0660F29
:102EB000771F881F991FEA95D1F720E031EE40E097
:102EC00050E00E94681A215030402093C400832FA4
:102ED00099278093C5001093C0000093C200109200
:102EE000C1002093CC008093CD001093C8000093C4
:102EF000CA001092C90084E490E0909395038093F7
:102F000094031092A3021092A5028AE080937F039B
:102F100010926D0210926F021092AB0310927C041B
:102F200010927B041092430410921A0310928F03A4
:102F300010928E0384E080935E02109285031092BB
:102F4000A2031092620210921703109216031092BD
:102F50000703109206038FEF80936E0280E00E94B9
:102F6000A809182F8091B60080628093B6008091E6
:102F7000B60081FDFCCF82E08093B0008091B60066
:102F800080FDFCCF83E08093B1008091B60083FD8B
:102F9000FCCF86EE8093B3008091700082608093B6
:102FA00070000E94E8038091000290910102019656
:102FB000AA27BB278093640290936502A0936602C0
:102FC000B093670281EB93E090932D0280932C02E3
:102FD0008F9690932F0280932E028FE094E090932F
:102FE0003102809330028FEF9FEF9093990380938B
:102FF000980390939B0380939A0390939D038093EF
:103000009C0390939F0380939E039093A1038093CE
:10301000A003809100028295807F809328028FEF29
:10302000809358020E947D168823E1F78F2D9927FF
:103030008FBF7894109287031092860312988FB7EF
:10304000F894282F3327922F80917F038A3031F014
:1030500080915E02843011F02FBF04C09FBF8DE0CD
:103060000E94A2018FB7F8949927209153022F5FF5
:10307000209353028FBF80915C028823D9F4809102
:1030800029028823B9F480914004813049F490E00A
:1030900080917B03882309F491E0992359F002C0C1
:1030A000853041F083E0809329020E94271185E05A
:1030B00080935C020E94E7108FB7F894482F552741
:1030C00057C080917000992783709070892B19F4F4
:1030D000E5E0F0E014C08091B6008A71E1F78091DC
:1030E000B3009091B200891B8C3038F08091B2000F
:1030F000853F18F4E3E0F0E002C0E2E0F0E0809108
:103100006E00867009F580916F008E72E9F48091EF
:1031100071008E72C9F40CB407FC16C08091C10016
:10312000887191F48091C900887171F48091BC001C
:1031300082FD0AC080917A0087FF03C081E090E0A1
:1031400005C085E090E002C080E090E023B78E17D4
:1031500008F4E82FFF27E051FD4FE491207F216024
:10316000E22BE3BF78948895F89483B78E7F83BF72
:103170008091A7038F3F09F4A4CF282F3327F901AB
:10318000E15CFD4F80818093A7038F3F11F4809312
:1031900078048FEF80832F3F09F493CF4FBF822FA6
:1031A0000E94A81189CFACE2B0E0E9EDF8E10C94FF
:1031B000A91A222E332E442E552E662E772E882EB7
:1031C000992EFE013196A8E01192AA95E9F729827D
:1031D0003A824B825C826D827E828F829886FE016B
:1031E0003996B8E01192BA95E9F7A986BA86CB86E6
:1031F000DC86ED86FE860F87188B89819A81AB81EC
:10320000BC8189A79AA7ABA7BCA77C018D018FEFD2
:103210009FEFA0E0B0E0E822F9220A231B2389A552
:103220009AA5ABA5BCA51D014424552489859A8582
:10323000AB85BC858DA39EA3AFA3B8A75C016D0130
:103240008FEF9FEFA0E0B0E0A822B922CA22DB22D4
:103250008DA19EA1AFA1B8A53D0188249924C801E4
:10326000B701A60195010E948A1A69A37AA38BA3CC
:103270009CA3C801B701A40193010E948A1A7B0193
:103280008C01C201B101A60195010E948A1A5B015D
:103290006C01C201B101A40193010E948A1A3B0191
:1032A0004C01EA0CFB1C0C1D1D1D89A19AA1ABA1B0
:1032B000BCA19D01442755272E0D3F1D401F511FC6
:1032C0002A153B054C055D0540F480E090E0A1E047
:1032D000B0E0680E791E8A1E9B1ECA01AA27BB2772
:1032E000860D971DA81DB91D8D8F9E8FAF8FB8A31A
:1032F000A9013327222789A19AA1ABA1BCA1A07063
:10330000B070280F391F4A1F5B1F298F3A8F4B8FD0
:103310005C8FA98CBA8CCB8CDC8CED8CFE8C0F8DE9
:1033200018A1FE01719698E011929A95E9F7ED8A3D
:10333000FE8A0F8B188F2D813E814F8158856DA19C
:103340007EA18FA198A50E948A1A3B014C012D8570
:103350003E854F85588969A57AA58BA59CA50E94B5
:103360008A1A2D893E894F89588D260F371F481F8D
:10337000591F260D371D481D591D2D8B3E8B4F8B18
:10338000588F6D887E888F88988C2A2D3B2D4C2DE8
:103390005D2D662D772D882D992DE2E1AC960C944C
:1033A000C51AA0E1B0E0E7EDF9E10C94A91A222ECC
:1033B000332E442E552E662E772E882E992E0023DE
:1033C00009F466C088E0FE01319611928A95E9F70A
:1033D00029833A834B835C836D837E838F829887B6
:1033E000E0E2E01B1E16CCF52D813E814F81588511
:1033F000602F772767FD7095DA01C901062E04C09A
:10340000B695A795979587950A94D2F78D879E874D
:10341000AF87B88B04C0220F331F441F551FEA9596
:10342000D2F789819A81AB81BC8104C0B695A795FA
:10343000979587956A95D2F7282B392B4A2B5B2BCA
:1034400029873A874B875C8729843A844B845C843C
:103450006D847E848F8498881BC01D861E861F867F
:10346000188A2E2F332727FD3095309521953F4F11
:103470008D819E81AF81B88504C0B695A79597953B
:1034800087952A95D2F789879A87AB87BC87DCCF47
:10349000222D332D442D552D662D772D882D992DD8
:1034A000E2E160960C94C51AAA1BBB1B51E107C050
:1034B000AA1FBB1FA617B70710F0A61BB70B881FC4
:1034C000991F5A95A9F780959095BC01CD01089553
:1034D000A1E21A2EAA1BBB1BFD010DC0AA1FBB1F18
:1034E000EE1FFF1FA217B307E407F50720F0A21B8A
:1034F000B30BE40BF50B661F771F881F991F1A94F7
:1035000069F760957095809590959B01AC01BD0120
:10351000CF010895629FD001739FF001829FE00D5B
:10352000F11D649FE00DF11D929FF00D839FF00D42
:10353000749FF00D659FF00D9927729FB00DE11DEE
:10354000F91F639FB00DE11DF91FBD01CF011124CB
:1035500008952F923F924F925F926F927F928F9237
:103560009F92AF92BF92CF92DF92EF92FF920F9312
:103570001F93CF93DF93CDB7DEB7CA1BDB0B0FB61C
:10358000F894DEBF0FBECDBF09942A8839884888D9
:103590005F846E847D848C849B84AA84B984C8846F
:1035A000DF80EE80FD800C811B81AA81B981CE0F66
:1035B000D11D0FB6F894DEBF0FBECDBFED0108954B
:1035C000DC0101C06D9341505040E0F70895FFCFFA
:1035D0000100010022FFFFFFFFFFFFFF1B034A0363
:0235E0001B03CB
:00000001FF
